{
  "contractName": "Bank",
  "abi": [
    {
      "inputs": [],
      "stateMutability": "nonpayable",
      "type": "constructor"
    },
    {
      "anonymous": false,
      "inputs": [
        {
          "indexed": false,
          "internalType": "bytes",
          "name": "_targetAppID",
          "type": "bytes"
        },
        {
          "indexed": false,
          "internalType": "string",
          "name": "_name",
          "type": "string"
        },
        {
          "indexed": false,
          "internalType": "bytes",
          "name": "_data",
          "type": "bytes"
        }
      ],
      "name": "AppEvent",
      "type": "event"
    },
    {
      "inputs": [],
      "name": "nonce",
      "outputs": [
        {
          "internalType": "uint256",
          "name": "",
          "type": "uint256"
        }
      ],
      "stateMutability": "view",
      "type": "function"
    },
    {
      "inputs": [],
      "name": "totalETH",
      "outputs": [
        {
          "internalType": "uint256",
          "name": "",
          "type": "uint256"
        }
      ],
      "stateMutability": "view",
      "type": "function"
    },
    {
      "inputs": [
        {
          "internalType": "address",
          "name": "",
          "type": "address"
        }
      ],
      "name": "totalTokens",
      "outputs": [
        {
          "internalType": "uint256",
          "name": "",
          "type": "uint256"
        }
      ],
      "stateMutability": "view",
      "type": "function"
    },
    {
      "inputs": [
        {
          "internalType": "bytes",
          "name": "_targetAppID",
          "type": "bytes"
        },
        {
          "internalType": "bytes",
          "name": "_recipient",
          "type": "bytes"
        }
      ],
      "name": "sendETH",
      "outputs": [],
      "stateMutability": "payable",
      "type": "function"
    },
    {
      "inputs": [
        {
          "internalType": "bytes",
          "name": "_targetAppID",
          "type": "bytes"
        },
        {
          "internalType": "bytes",
          "name": "_recipient",
          "type": "bytes"
        },
        {
          "internalType": "address",
          "name": "_tokenAddr",
          "type": "address"
        },
        {
          "internalType": "uint256",
          "name": "_amount",
          "type": "uint256"
        }
      ],
      "name": "sendERC20",
      "outputs": [],
      "stateMutability": "nonpayable",
      "type": "function"
    }
  ],
  "bytecode": "0x608060405234801561001057600080fd5b5060008081905550610b69806100276000396000f3fe60806040526004361061004a5760003560e01c806336bdee741461004f578063affed0e01461007a578063cb9199a2146100a5578063f99434b61461010a578063ffd9c6d11461025c575b600080fd5b34801561005b57600080fd5b506100646103e5565b6040518082815260200191505060405180910390f35b34801561008657600080fd5b5061008f6103eb565b6040518082815260200191505060405180910390f35b3480156100b157600080fd5b506100f4600480360360208110156100c857600080fd5b81019080803573ffffffffffffffffffffffffffffffffffffffff1690602001909291905050506103f1565b6040518082815260200191505060405180910390f35b61025a6004803603604081101561012057600080fd5b810190808035906020019064010000000081111561013d57600080fd5b82018360208201111561014f57600080fd5b8035906020019184600183028401116401000000008311171561017157600080fd5b91908080601f016020809104026020016040519081016040528093929190818152602001838380828437600081840152601f19601f820116905080830192505050505050509192919290803590602001906401000000008111156101d457600080fd5b8201836020820111156101e657600080fd5b8035906020019184600183028401116401000000008311171561020857600080fd5b91908080601f016020809104026020016040519081016040528093929190818152602001838380828437600081840152601f19601f820116905080830192505050505050509192919290505050610409565b005b34801561026857600080fd5b506103e36004803603608081101561027f57600080fd5b810190808035906020019064010000000081111561029c57600080fd5b8201836020820111156102ae57600080fd5b803590602001918460018302840111640100000000831117156102d057600080fd5b91908080601f016020809104026020016040519081016040528093929190818152602001838380828437600081840152601f19601f8201169050808301925050505050505091929192908035906020019064010000000081111561033357600080fd5b82018360208201111561034557600080fd5b8035906020019184600183028401116401000000008311171561036757600080fd5b91908080601f016020809104026020016040519081016040528093929190818152602001838380828437600081840152601f19601f820116905080830192505050505050509192919290803573ffffffffffffffffffffffffffffffffffffffff169060200190929190803590602001909291905050506105f4565b005b60015481565b60005481565b60026020528060005260406000206000915090505481565b60003411610462576040517f08c379a0000000000000000000000000000000000000000000000000000000008152600401808060200182810382526025815260200180610acb6025913960400191505060405180910390fd5b6104773460015461094c90919063ffffffff16565b600181905550610493600160005461094c90919063ffffffff16565b60008190555060606104ab33836000346000546109d4565b90507f266413be5700ce8dd5ac6b9a7dfbabe99b3e45cae9a68ac2757858710b401a38838260405180806020018060200180602001848103845286818151815260200191508051906020019080838360005b838110156105185780820151818401526020810190506104fd565b50505050905090810190601f1680156105455780820380516001836020036101000a031916815260200191505b50848103835260078152602001807f73656e6445544800000000000000000000000000000000000000000000000000815250602001848103825285818151815260200191508051906020019080838360005b838110156105b2578082015181840152602081019050610597565b50505050905090810190601f1680156105df5780820380516001836020036101000a031916815260200191505b509550505050505060405180910390a1505050565b8173ffffffffffffffffffffffffffffffffffffffff166323b872dd3330846040518463ffffffff1660e01b8152600401808473ffffffffffffffffffffffffffffffffffffffff1673ffffffffffffffffffffffffffffffffffffffff1681526020018373ffffffffffffffffffffffffffffffffffffffff1673ffffffffffffffffffffffffffffffffffffffff1681526020018281526020019350505050602060405180830381600087803b1580156106af57600080fd5b505af11580156106c3573d6000803e3d6000fd5b505050506040513d60208110156106d957600080fd5b810190808051906020019092919050505061073f576040517f08c379a0000000000000000000000000000000000000000000000000000000008152600401808060200182810382526044815260200180610af06044913960600191505060405180910390fd5b61079181600260008573ffffffffffffffffffffffffffffffffffffffff1673ffffffffffffffffffffffffffffffffffffffff1681526020019081526020016000205461094c90919063ffffffff16565b600260008473ffffffffffffffffffffffffffffffffffffffff1673ffffffffffffffffffffffffffffffffffffffff168152602001908152602001600020819055506107ea600160005461094c90919063ffffffff16565b6000819055506060610801338585856000546109d4565b90507f266413be5700ce8dd5ac6b9a7dfbabe99b3e45cae9a68ac2757858710b401a38858260405180806020018060200180602001848103845286818151815260200191508051906020019080838360005b8381101561086e578082015181840152602081019050610853565b50505050905090810190601f16801561089b5780820380516001836020036101000a031916815260200191505b50848103835260098152602001807f73656e6445524332300000000000000000000000000000000000000000000000815250602001848103825285818151815260200191508051906020019080838360005b838110156109085780820151818401526020810190506108ed565b50505050905090810190601f1680156109355780820380516001836020036101000a031916815260200191505b509550505050505060405180910390a15050505050565b6000808284019050838110156109ca576040517f08c379a000000000000000000000000000000000000000000000000000000000815260040180806020018281038252601b8152602001807f536166654d6174683a206164646974696f6e206f766572666c6f77000000000081525060200191505060405180910390fd5b8091505092915050565b60608585858585604051602001808673ffffffffffffffffffffffffffffffffffffffff1673ffffffffffffffffffffffffffffffffffffffff1660601b815260140185805190602001908083835b60208310610a465780518252602082019150602081019050602083039250610a23565b6001836020036101000a0380198251168184511680821785525050505050509050018473ffffffffffffffffffffffffffffffffffffffff1673ffffffffffffffffffffffffffffffffffffffff1660601b81526014018381526020018281526020019550505050505060405160208183030381529060405290509594505050505056fe56616c7565206f66207472616e73616374696f6e206d75737420626520706f736974697665436f6e747261637420746f6b656e20616c6c6f77616e63657320696e73756666696369656e7420746f20636f6d706c6574652074686973206c6f636b2072657175657374a2646970667358221220eb1b6803faf65e1210356c5c5becbe47d4d4d04c547655d08c82f617f28c1c4664736f6c63430006020033",
  "source": "// SPDX-License-Identifier: MIT\npragma solidity ^0.6.2;\n\nimport \"../node_modules/@openzeppelin/contracts/math/SafeMath.sol\";\nimport \"../node_modules/@openzeppelin/contracts/token/erc20/IERC20.sol\";\n\ncontract Bank {\n    using SafeMath for uint256;\n\n    uint256 public nonce;\n    uint256 public totalETH;\n    mapping(address => uint256) public totalTokens;\n\n    event AppEvent(bytes _targetAppID, string _name, bytes _data);\n\n    constructor() public {\n        nonce = 0;\n    }\n\n    function sendETH(\n        bytes memory _targetAppID,\n        bytes memory _recipient\n    )\n        public payable\n    {\n        require(msg.value > 0, \"Value of transaction must be positive\");\n\n        // Increment locked Ethereum counter by this amount\n        totalETH = totalETH.add(msg.value);\n        // Increment global nonce\n        nonce = nonce.add(1);\n\n        bytes memory data = encodeSendData(msg.sender, _recipient, address(0), msg.value, nonce);\n        emit AppEvent(_targetAppID, \"sendETH\", data);\n    }\n\n    function sendERC20(\n        bytes memory _targetAppID,\n        bytes memory _recipient,\n        address _tokenAddr,\n        uint256 _amount\n    )\n        public\n    {\n       require(\n            IERC20(_tokenAddr).transferFrom(msg.sender, address(this), _amount),\n            \"Contract token allowances insufficient to complete this lock request\"\n        );\n\n        // Increment locked ERC20 token counter by this amount\n        totalTokens[_tokenAddr] = totalTokens[_tokenAddr].add(_amount);\n        // Increment global nonce\n        nonce = nonce.add(1);\n\n        bytes memory data = encodeSendData(msg.sender, _recipient, _tokenAddr,_amount, nonce);\n        emit AppEvent(_targetAppID, \"sendERC20\", data);\n    }\n\n    function encodeSendData(\n        address _sender,\n        bytes memory _recipient,\n        address _tokenAddr,\n        uint256 _amount,\n        uint256 _nonce\n    )\n        internal\n        pure\n        returns(bytes memory)\n    {\n        return abi.encodePacked(_sender, _recipient, _tokenAddr, _amount, _nonce);\n    }\n}\n",
  "sourcePath": "/Users/denali/go/src/github.com/snowfork/polkadot-ethereum/ethereum/contracts/Bank.sol",
  "compiler": {
    "name": "solc",
    "version": "0.6.2+commit.bacdbe57.Emscripten.clang"
  },
  "schemaVersion": "3.1.0",
  "updatedAt": "2020-07-14T21:50:19.609Z",
  "devdoc": {
    "methods": {}
  },
  "userdoc": {
    "methods": {}
  }
}