{
  "contractName": "Base58",
  "abi": [
    {
      "inputs": [
        {
          "internalType": "bytes",
          "name": "source",
          "type": "bytes"
        }
      ],
      "name": "toBase58",
      "outputs": [
        {
          "internalType": "bytes",
          "name": "",
          "type": "bytes"
        }
      ],
      "stateMutability": "pure",
      "type": "function"
    },
    {
      "inputs": [
        {
          "internalType": "uint8[]",
          "name": "array",
          "type": "uint8[]"
        },
        {
          "internalType": "uint8",
          "name": "length",
          "type": "uint8"
        }
      ],
      "name": "truncate",
      "outputs": [
        {
          "internalType": "uint8[]",
          "name": "",
          "type": "uint8[]"
        }
      ],
      "stateMutability": "pure",
      "type": "function"
    },
    {
      "inputs": [
        {
          "internalType": "uint8[]",
          "name": "input",
          "type": "uint8[]"
        }
      ],
      "name": "reverse",
      "outputs": [
        {
          "internalType": "uint8[]",
          "name": "",
          "type": "uint8[]"
        }
      ],
      "stateMutability": "pure",
      "type": "function"
    },
    {
      "inputs": [
        {
          "internalType": "uint8[]",
          "name": "indices",
          "type": "uint8[]"
        }
      ],
      "name": "toAlphabet",
      "outputs": [
        {
          "internalType": "bytes",
          "name": "",
          "type": "bytes"
        }
      ],
      "stateMutability": "pure",
      "type": "function"
    }
  ],
  "bytecode": "0x610959610026600b82828239805160001a60731461001957fe5b30600052607381538281f3fe73000000000000000000000000000000000000000030146080604052600436106100565760003560e01c80637e0cfc3d1461005b578063b500cc0814610175578063d76f94aa146102a9578063f13d111f146103da575b600080fd5b61011e6004803603604081101561007157600080fd5b810190808035906020019064010000000081111561008e57600080fd5b8201836020820111156100a057600080fd5b803590602001918460208302840111640100000000831117156100c257600080fd5b919080806020026020016040519081016040528093929190818152602001838360200280828437600081840152601f19601f820116905080830192505050505050509192919290803560ff1690602001909291905050506104e7565b6040518080602001828103825283818151815260200191508051906020019060200280838360005b83811015610161578082015181840152602081019050610146565b505050509050019250505060405180910390f35b61022e6004803603602081101561018b57600080fd5b81019080803590602001906401000000008111156101a857600080fd5b8201836020820111156101ba57600080fd5b803590602001918460018302840111640100000000831117156101dc57600080fd5b91908080601f016020809104026020016040519081016040528093929190818152602001838380828437600081840152601f19601f820116905080830192505050505050509192919290505050610585565b6040518080602001828103825283818151815260200191508051906020019080838360005b8381101561026e578082015181840152602081019050610253565b50505050905090810190601f16801561029b5780820380516001836020036101000a031916815260200191505b509250505060405180910390f35b61035f600480360360208110156102bf57600080fd5b81019080803590602001906401000000008111156102dc57600080fd5b8201836020820111156102ee57600080fd5b8035906020019184602083028401116401000000008311171561031057600080fd5b919080806020026020016040519081016040528093929190818152602001838360200280828437600081840152601f19601f820116905080830192505050505050509192919290505050610761565b6040518080602001828103825283818151815260200191508051906020019080838360005b8381101561039f578082015181840152602081019050610384565b50505050905090810190601f1680156103cc5780820380516001836020036101000a031916815260200191505b509250505060405180910390f35b610490600480360360208110156103f057600080fd5b810190808035906020019064010000000081111561040d57600080fd5b82018360208201111561041f57600080fd5b8035906020019184602083028401116401000000008311171561044157600080fd5b919080806020026020016040519081016040528093929190818152602001838360200280828437600081840152601f19601f82011690508083019250505050505050919291929050505061084a565b6040518080602001828103825283818151815260200191508051906020019060200280838360005b838110156104d35780820151818401526020810190506104b8565b505050509050019250505060405180910390f35b6060808260ff1660405190808252806020026020018201604052801561051c5781602001602082028038833980820191505090505b50905060008090505b8360ff168160ff16101561057a57848160ff168151811061054257fe5b6020026020010151828260ff168151811061055957fe5b602002602001019060ff16908160ff16815250508080600101915050610525565b508091505092915050565b60606000825114156105cd5760006040519080825280601f01601f1916602001820160405280156105c55781602001600182028038833980820191505090505b50905061075c565b606060286040519080825280602002602001820160405280156105ff5781602001602082028038833980820191505090505b50905060008160008151811061061157fe5b602002602001019060ff16908160ff168152505060006001905060008090505b84518160ff16101561073c576000858260ff168151811061064e57fe5b602001015160f81c60f81b60f81c60ff16905060008090505b8360ff168160ff1610156106dd57610100858260ff168151811061068757fe5b602002602001015160ff160282019150603a82816106a157fe5b06858260ff16815181106106b157fe5b602002602001019060ff16908160ff1681525050603a82816106cf57fe5b049150806001019050610667565b505b600081111561073057603a81816106f257fe5b06848460ff168151811061070257fe5b602002602001019060ff16908160ff16815250508280600101935050603a818161072857fe5b0490506106df565b50806001019050610631565b5061075761075261074d84846104e7565b61084a565b610761565b925050505b919050565b60608082516040519080825280601f01601f1916602001820160405280156107985781602001600182028038833980820191505090505b50905060008090505b83518160ff161015610840576040518060600160405280603a81526020016108ea603a9139848260ff16815181106107d557fe5b602002602001015160ff16815181106107ea57fe5b602001015160f81c60f81b828260ff168151811061080457fe5b60200101907effffffffffffffffffffffffffffffffffffffffffffffffffffffffffffff1916908160001a90535080806001019150506107a1565b5080915050919050565b606080825160405190808252806020026020018201604052801561087d5781602001602082028038833980820191505090505b50905060008090505b83518160ff1610156108df57838160ff16600186510303815181106108a757fe5b6020026020010151828260ff16815181106108be57fe5b602002602001019060ff16908160ff16815250508080600101915050610886565b508091505091905056fe31323334353637383941424344454647484a4b4c4d4e505152535455565758595a6162636465666768696a6b6d6e6f707172737475767778797aa26469706673582212204cee1cefa6f9f1a6c5b4fe7b6bc5a475114d5cbb6e40e1a9392caf1f8f277d1064736f6c63430006020033",
  "source": "// SPDX-License-Identifier: MIT\npragma solidity >=0.6.2;\n\nlibrary Base58 {\n\n    bytes constant ALPHABET = '123456789ABCDEFGHJKLMNPQRSTUVWXYZabcdefghijkmnopqrstuvwxyz';\n\n    function toBase58(bytes memory source)\n        public\n        pure\n        returns (bytes memory)\n    {\n        if (source.length == 0) return new bytes(0);\n        uint8[] memory digits = new uint8[](40); //TODO: figure out exactly how much is needed\n        digits[0] = 0;\n        uint8 digitlength = 1;\n        for (uint8 i = 0; i<source.length; ++i) {\n            uint carry = uint8(source[i]);\n            for (uint8 j = 0; j<digitlength; ++j) {\n                carry += uint(digits[j]) * 256;\n                digits[j] = uint8(carry % 58);\n                carry = carry / 58;\n            }\n            \n            while (carry > 0) {\n                digits[digitlength] = uint8(carry % 58);\n                digitlength++;\n                carry = carry / 58;\n            }\n        }\n        //return digits;\n        return toAlphabet(reverse(truncate(digits, digitlength)));\n    }\n\n    function truncate(uint8[] memory array, uint8 length) public pure returns (uint8[] memory) {\n        uint8[] memory output = new uint8[](length);\n        for (uint8 i = 0; i<length; i++) {\n            output[i] = array[i];\n        }\n        return output;\n    }\n    \n    function reverse(uint8[] memory input) public pure returns (uint8[] memory) {\n        uint8[] memory output = new uint8[](input.length);\n        for (uint8 i = 0; i<input.length; i++) {\n            output[i] = input[input.length-1-i];\n        }\n        return output;\n    }\n    \n    function toAlphabet(uint8[] memory indices) public pure returns (bytes memory) {\n        bytes memory output = new bytes(indices.length);\n        for (uint8 i = 0; i<indices.length; i++) {\n            output[i] = ALPHABET[indices[i]];\n        }\n        return output;\n    }\n\n}",
  "sourcePath": "/Users/denali/go/src/github.com/snowfork/polkadot-ethereum/ethereum/contracts/Base58.sol",
  "compiler": {
    "name": "solc",
    "version": "0.6.2+commit.bacdbe57.Emscripten.clang"
  },
  "schemaVersion": "3.1.0",
  "updatedAt": "2020-07-30T21:07:32.473Z",
  "devdoc": {
    "methods": {}
  },
  "userdoc": {
    "methods": {}
  }
}