{
  "contractName": "ERC20App",
  "abi": [
    {
      "inputs": [],
      "stateMutability": "nonpayable",
      "type": "constructor"
    },
    {
      "anonymous": false,
      "inputs": [
        {
          "indexed": false,
          "internalType": "uint256",
          "name": "_tag",
          "type": "uint256"
        },
        {
          "indexed": false,
          "internalType": "bytes",
          "name": "_data",
          "type": "bytes"
        }
      ],
      "name": "AppEvent",
      "type": "event"
    },
    {
      "anonymous": false,
      "inputs": [
        {
          "indexed": false,
          "internalType": "bytes",
          "name": "_sender",
          "type": "bytes"
        },
        {
          "indexed": false,
          "internalType": "address",
          "name": "_recipient",
          "type": "address"
        },
        {
          "indexed": false,
          "internalType": "address",
          "name": "_token",
          "type": "address"
        },
        {
          "indexed": false,
          "internalType": "uint256",
          "name": "_amount",
          "type": "uint256"
        }
      ],
      "name": "Unlock",
      "type": "event"
    },
    {
      "inputs": [],
      "name": "nonce",
      "outputs": [
        {
          "internalType": "uint256",
          "name": "",
          "type": "uint256"
        }
      ],
      "stateMutability": "view",
      "type": "function",
      "constant": true
    },
    {
      "inputs": [
        {
          "internalType": "address",
          "name": "",
          "type": "address"
        }
      ],
      "name": "totalTokens",
      "outputs": [
        {
          "internalType": "uint256",
          "name": "",
          "type": "uint256"
        }
      ],
      "stateMutability": "view",
      "type": "function",
      "constant": true
    },
    {
      "inputs": [
        {
          "internalType": "bytes32",
          "name": "_recipient",
          "type": "bytes32"
        },
        {
          "internalType": "address",
          "name": "_tokenAddr",
          "type": "address"
        },
        {
          "internalType": "uint256",
          "name": "_amount",
          "type": "uint256"
        }
      ],
      "name": "sendERC20",
      "outputs": [],
      "stateMutability": "nonpayable",
      "type": "function"
    },
    {
      "inputs": [
        {
          "internalType": "bytes",
          "name": "_data",
          "type": "bytes"
        },
        {
          "internalType": "bytes",
          "name": "_signature",
          "type": "bytes"
        }
      ],
      "name": "submit",
      "outputs": [
        {
          "internalType": "uint256",
          "name": "",
          "type": "uint256"
        }
      ],
      "stateMutability": "nonpayable",
      "type": "function"
    }
  ],
  "bytecode": "0x608060405234801561001057600080fd5b5060008081905550611052806100276000396000f3fe608060405234801561001057600080fd5b506004361061004c5760003560e01c806339b973ad14610051578063affed0e0146101b7578063cb9199a2146101d5578063da795ea31461022d575b600080fd5b6101a16004803603604081101561006757600080fd5b810190808035906020019064010000000081111561008457600080fd5b82018360208201111561009657600080fd5b803590602001918460018302840111640100000000831117156100b857600080fd5b91908080601f016020809104026020016040519081016040528093929190818152602001838380828437600081840152601f19601f8201169050808301925050505050505091929192908035906020019064010000000081111561011b57600080fd5b82018360208201111561012d57600080fd5b8035906020019184600183028401116401000000008311171561014f57600080fd5b91908080601f016020809104026020016040519081016040528093929190818152602001838380828437600081840152601f19601f820116905080830192505050505050509192919290505050610285565b6040518082815260200191505060405180910390f35b6101bf610476565b6040518082815260200191505060405180910390f35b610217600480360360208110156101eb57600080fd5b81019080803573ffffffffffffffffffffffffffffffffffffffff16906020019092919050505061047c565b6040518082815260200191505060405180910390f35b6102836004803603606081101561024357600080fd5b8101908080359060200190929190803573ffffffffffffffffffffffffffffffffffffffff16906020019092919080359060200190929190505050610494565b005b600060688351146102e1576040517f08c379a0000000000000000000000000000000000000000000000000000000008152600401808060200182810382526035815260200180610fa46035913960400191505060405180910390fd5b60606102fa60006020866107589092919063ffffffff16565b9050600061031260208661084d90919063ffffffff16565b9050600061032a60348761084d90919063ffffffff16565b9050606061034560486020896107589092919063ffffffff16565b90506000610352826108ed565b905061035f848483610913565b7ffa064c20e786f9c8eea8b47bca040106b30ef2db99f72ab86f16d0377531c0228585858460405180806020018573ffffffffffffffffffffffffffffffffffffffff1673ffffffffffffffffffffffffffffffffffffffff1681526020018473ffffffffffffffffffffffffffffffffffffffff1673ffffffffffffffffffffffffffffffffffffffff168152602001838152602001828103825286818151815260200191508051906020019080838360005b8381101561042e578082015181840152602081019050610413565b50505050905090810190601f16801561045b5780820380516001836020036101000a031916815260200191505b509550505050505060405180910390a1505050505092915050565b60005481565b60016020528060005260406000206000915090505481565b8173ffffffffffffffffffffffffffffffffffffffff166323b872dd3330846040518463ffffffff1660e01b8152600401808473ffffffffffffffffffffffffffffffffffffffff1673ffffffffffffffffffffffffffffffffffffffff1681526020018373ffffffffffffffffffffffffffffffffffffffff1673ffffffffffffffffffffffffffffffffffffffff1681526020018281526020019350505050602060405180830381600087803b15801561054f57600080fd5b505af1158015610563573d6000803e3d6000fd5b505050506040513d602081101561057957600080fd5b81019080805190602001909291905050506105df576040517f08c379a0000000000000000000000000000000000000000000000000000000008152600401808060200182810382526044815260200180610fd96044913960600191505060405180910390fd5b61063181600160008573ffffffffffffffffffffffffffffffffffffffff1673ffffffffffffffffffffffffffffffffffffffff16815260200190815260200160002054610bee90919063ffffffff16565b600160008473ffffffffffffffffffffffffffffffffffffffff1673ffffffffffffffffffffffffffffffffffffffff1681526020019081526020016000208190555061068a6001600054610bee90919063ffffffff16565b60008190555060606106a133858585600054610c76565b90507f6bafbf13bfcea5e4ce5cd1a03b246069acefcd0bada5ef4e1a059b37a08c23996001808111156106d057fe5b826040518083815260200180602001828103825283818151815260200191508051906020019080838360005b838110156107175780820151818401526020810190506106fc565b50505050905090810190601f1680156107445780820380516001836020036101000a031916815260200191505b50935050505060405180910390a150505050565b6060818301845110156107d3576040517f08c379a00000000000000000000000000000000000000000000000000000000081526004018080602001828103825260128152602001807f52656164206f7574206f6620626f756e6473000000000000000000000000000081525060200191505060405180910390fd5b60608215600081146107f057604051915060208201604052610841565b6040519150601f8416801560200281840101858101878315602002848b0101015b8183101561082e5780518352602083019250602081019050610811565b50868552601f19601f8301166040525050505b50809150509392505050565b600060148201835110156108c9576040517f08c379a00000000000000000000000000000000000000000000000000000000081526004018080602001828103825260128152602001807f52656164206f7574206f6620626f756e6473000000000000000000000000000081525060200191505060405180910390fd5b60006c01000000000000000000000000836020860101510490508091505092915050565b600060606108fa83610d1b565b9050600061090782610e02565b90508092505050919050565b60008111610989576040517f08c379a000000000000000000000000000000000000000000000000000000000815260040180806020018281038252601d8152602001807f4d75737420756e6c6f636b206120706f73697469766520616d6f756e7400000081525060200191505060405180910390fd5b80600160008473ffffffffffffffffffffffffffffffffffffffff1673ffffffffffffffffffffffffffffffffffffffff1681526020019081526020016000205411610a20576040517f08c379a000000000000000000000000000000000000000000000000000000000815260040180806020018281038252603f815260200180610f65603f913960400191505060405180910390fd5b610a7281600160008573ffffffffffffffffffffffffffffffffffffffff1673ffffffffffffffffffffffffffffffffffffffff16815260200190815260200160002054610e5a90919063ffffffff16565b600160008473ffffffffffffffffffffffffffffffffffffffff1673ffffffffffffffffffffffffffffffffffffffff168152602001908152602001600020819055508173ffffffffffffffffffffffffffffffffffffffff1663a9059cbb84836040518363ffffffff1660e01b8152600401808373ffffffffffffffffffffffffffffffffffffffff1673ffffffffffffffffffffffffffffffffffffffff16815260200182815260200192505050602060405180830381600087803b158015610b3c57600080fd5b505af1158015610b50573d6000803e3d6000fd5b505050506040513d6020811015610b6657600080fd5b8101908080519060200190929190505050610be9576040517f08c379a000000000000000000000000000000000000000000000000000000000815260040180806020018281038252601b8152602001807f455243323020746f6b656e207472616e73666572206661696c6564000000000081525060200191505060405180910390fd5b505050565b600080828401905083811015610c6c576040517f08c379a000000000000000000000000000000000000000000000000000000000815260040180806020018281038252601b8152602001807f536166654d6174683a206164646974696f6e206f766572666c6f77000000000081525060200191505060405180910390fd5b8091505092915050565b60608585858585604051602001808673ffffffffffffffffffffffffffffffffffffffff1673ffffffffffffffffffffffffffffffffffffffff1681526020018581526020018473ffffffffffffffffffffffffffffffffffffffff1673ffffffffffffffffffffffffffffffffffffffff16815260200183815260200182815260200195505050505050604051602081830303815290604052905095945050505050565b606060008090505b6002835181610d2e57fe5b04811015610df9576000838281518110610d4457fe5b602001015160f81c60f81b90506000600183865103039050848181518110610d6857fe5b602001015160f81c60f81b858481518110610d7f57fe5b60200101907effffffffffffffffffffffffffffffffffffffffffffffffffffffffffffff1916908160001a90535081858281518110610dbb57fe5b60200101907effffffffffffffffffffffffffffffffffffffffffffffffffffffffffffff1916908160001a90535050508080600101915050610d23565b50819050919050565b60008060008090505b8351811015610e50576001810184510360080260020a848281518110610e2d57fe5b602001015160f81c60f81b60f81c60ff1602820191508080600101915050610e0b565b5080915050919050565b6000610e9c83836040518060400160405280601e81526020017f536166654d6174683a207375627472616374696f6e206f766572666c6f770000815250610ea4565b905092915050565b6000838311158290610f51576040517f08c379a00000000000000000000000000000000000000000000000000000000081526004018080602001828103825283818151815260200191508051906020019080838360005b83811015610f16578082015181840152602081019050610efb565b50505050905090810190601f168015610f435780820380516001836020036101000a031916815260200191505b509250505060405180910390fd5b506000838503905080915050939250505056fe455243323020746f6b656e2062616c616e63657320696e73756666696369656e7420746f2066756c66696c6c2074686520756e6c6f636b207265717565737444617461206d75737420636f6e7461696e2031303420627974657320666f722061207375636365737366756c206465636f64696e67436f6e747261637420746f6b656e20616c6c6f77616e63657320696e73756666696369656e7420746f20636f6d706c6574652074686973206c6f636b2072657175657374a2646970667358221220cd2a710ab86ede26f9d81e03231e4381d8d9c067754a2b9e7146f7577a3104dc64736f6c63430006020033",
  "source": "// SPDX-License-Identifier: MIT\npragma solidity >=0.6.2;\n\nimport \"@openzeppelin/contracts/math/SafeMath.sol\";\nimport \"@openzeppelin/contracts/token/ERC20/IERC20.sol\";\nimport \"./Decoder.sol\";\n\ncontract ERC20App {\n    using SafeMath for uint256;\n    using Decoder for bytes;\n\n    uint256 public nonce;\n    mapping(address => uint256) public totalTokens;\n\n    enum AppEventTags { SendETH, SendERC20 }\n\n    event AppEvent(uint _tag, bytes _data);\n    event Unlock(bytes _sender, address _recipient, address _token, uint256 _amount);\n\n    constructor() public {\n        nonce = 0;\n    }\n\n    function sendERC20(\n        bytes32 _recipient,\n        address _tokenAddr,\n        uint256 _amount\n    )\n        public\n    {\n       require(\n            IERC20(_tokenAddr).transferFrom(msg.sender, address(this), _amount),\n            \"Contract token allowances insufficient to complete this lock request\"\n        );\n\n        // Increment locked ERC20 token counter by this amount\n        totalTokens[_tokenAddr] = totalTokens[_tokenAddr].add(_amount);\n        // Increment global nonce\n        nonce = nonce.add(1);\n\n        bytes memory data = encodeSendData(msg.sender, _recipient, _tokenAddr,_amount, nonce);\n        emit AppEvent(uint(AppEventTags.SendERC20), data);\n    }\n\n    function encodeSendData(\n        address _sender,\n        bytes32 _recipient,\n        address _tokenAddr,\n        uint256 _amount,\n        uint256 _nonce\n    )\n        internal\n        pure\n        returns(bytes memory)\n    {\n        return abi.encode(_sender, _recipient, _tokenAddr, _amount, _nonce);\n    }\n\n    function submit(bytes memory _data, bytes memory _signature)\n        public\n        returns (uint256)\n    {\n        require(_data.length == 104, \"Data must contain 104 bytes for a successful decoding\");\n\n        // Decode sender bytes\n        bytes memory sender = _data.slice(0, 32);\n        // Decode recipient address\n        address recipient = _data.sliceAddress(32);\n        // Decode token address\n        address tokenAddr = _data.sliceAddress(32 + 20);\n        // Deocde amount int256\n        bytes memory amountBytes = _data.slice(32 + 40, 32);\n        uint256 amount = amountBytes.decodeUint256();\n\n        sendTokens(recipient, tokenAddr, amount);\n        emit Unlock(sender, recipient, tokenAddr, amount);\n    }\n\n    function sendTokens(\n        address _recipient,\n        address _token,\n        uint256 _amount\n    )\n        internal\n    {\n        require(_amount > 0, \"Must unlock a positive amount\");\n        require(totalTokens[_token] > _amount, \"ERC20 token balances insufficient to fulfill the unlock request\");\n\n        totalTokens[_token] = totalTokens[_token].sub(_amount);\n        require(IERC20(_token).transfer(_recipient, _amount), \"ERC20 token transfer failed\");\n    }\n}\n",
  "sourcePath": "/Users/denali/go/src/github.com/snowfork/polkadot-ethereum/ethereum/contracts/ERC20App.sol",
  "compiler": {
    "name": "solc",
    "version": "0.6.2+commit.bacdbe57.Emscripten.clang"
  },
  "schemaVersion": "3.1.0",
  "updatedAt": "2020-08-27T16:23:40.619Z",
  "networkType": "ethereum",
  "devdoc": {
    "methods": {}
  },
  "userdoc": {
    "methods": {}
  }
}