{
  "contractName": "EthereumApp",
  "abi": [
    {
      "inputs": [],
      "stateMutability": "nonpayable",
      "type": "constructor"
    },
    {
      "anonymous": false,
      "inputs": [
        {
          "indexed": false,
          "internalType": "uint256",
          "name": "_tag",
          "type": "uint256"
        },
        {
          "indexed": false,
          "internalType": "bytes",
          "name": "_data",
          "type": "bytes"
        }
      ],
      "name": "AppEvent",
      "type": "event"
    },
    {
      "anonymous": false,
      "inputs": [
        {
          "indexed": false,
          "internalType": "bytes",
          "name": "_sender",
          "type": "bytes"
        },
        {
          "indexed": false,
          "internalType": "address",
          "name": "_recipient",
          "type": "address"
        },
        {
          "indexed": false,
          "internalType": "uint256",
          "name": "_amount",
          "type": "uint256"
        }
      ],
      "name": "Unlock",
      "type": "event"
    },
    {
      "inputs": [],
      "name": "nonce",
      "outputs": [
        {
          "internalType": "uint256",
          "name": "",
          "type": "uint256"
        }
      ],
      "stateMutability": "view",
      "type": "function",
      "constant": true
    },
    {
      "inputs": [],
      "name": "totalETH",
      "outputs": [
        {
          "internalType": "uint256",
          "name": "",
          "type": "uint256"
        }
      ],
      "stateMutability": "view",
      "type": "function",
      "constant": true
    },
    {
      "inputs": [
        {
          "internalType": "bytes",
          "name": "_data",
          "type": "bytes"
        },
        {
          "internalType": "bytes",
          "name": "_signature",
          "type": "bytes"
        }
      ],
      "name": "submit",
      "outputs": [],
      "stateMutability": "nonpayable",
      "type": "function"
    },
    {
      "inputs": [
        {
          "internalType": "bytes32",
          "name": "_recipient",
          "type": "bytes32"
        }
      ],
      "name": "sendETH",
      "outputs": [],
      "stateMutability": "payable",
      "type": "function",
      "payable": true
    }
  ],
  "bytecode": "0x608060405234801561001057600080fd5b5060008081905550610c5d806100276000396000f3fe60806040526004361061003f5760003560e01c80630846691f1461004457806336bdee741461007257806339b973ad1461009d578063affed0e0146101fc575b600080fd5b6100706004803603602081101561005a57600080fd5b8101908080359060200190929190505050610227565b005b34801561007e57600080fd5b5061008761037f565b6040518082815260200191505060405180910390f35b3480156100a957600080fd5b506101fa600480360360408110156100c057600080fd5b81019080803590602001906401000000008111156100dd57600080fd5b8201836020820111156100ef57600080fd5b8035906020019184600183028401116401000000008311171561011157600080fd5b91908080601f016020809104026020016040519081016040528093929190818152602001838380828437600081840152601f19601f8201169050808301925050505050505091929192908035906020019064010000000081111561017457600080fd5b82018360208201111561018657600080fd5b803590602001918460018302840111640100000000831117156101a857600080fd5b91908080601f016020809104026020016040519081016040528093929190818152602001838380828437600081840152601f19601f820116905080830192505050505050509192919290505050610385565b005b34801561020857600080fd5b50610211610524565b6040518082815260200191505060405180910390f35b60003411610280576040517f08c379a0000000000000000000000000000000000000000000000000000000008152600401808060200182810382526025815260200180610b926025913960400191505060405180910390fd5b6102953460015461052a90919063ffffffff16565b6001819055506102b1600160005461052a90919063ffffffff16565b60008190555060606102c933836000346000546105b2565b90507f6bafbf13bfcea5e4ce5cd1a03b246069acefcd0bada5ef4e1a059b37a08c2399600060018111156102f957fe5b826040518083815260200180602001828103825283818151815260200191508051906020019080838360005b83811015610340578082015181840152602081019050610325565b50505050905090810190601f16801561036d5780820380516001836020036101000a031916815260200191505b50935050505060405180910390a15050565b60015481565b60548251146103df576040517f08c379a0000000000000000000000000000000000000000000000000000000008152600401808060200182810382526034815260200180610bf46034913960400191505060405180910390fd5b60606103f860006020856106579092919063ffffffff16565b9050600061041060208561074c90919063ffffffff16565b9050606061042b60346020876106579092919063ffffffff16565b90506000610438826107ec565b90506104448382610812565b7f650214a28fbf147999e14f248574f56cb6f209a0f60bef5f17c4f6d34f5f2ca184848360405180806020018473ffffffffffffffffffffffffffffffffffffffff1673ffffffffffffffffffffffffffffffffffffffff168152602001838152602001828103825285818151815260200191508051906020019080838360005b838110156104e05780820151818401526020810190506104c5565b50505050905090810190601f16801561050d5780820380516001836020036101000a031916815260200191505b5094505050505060405180910390a1505050505050565b60005481565b6000808284019050838110156105a8576040517f08c379a000000000000000000000000000000000000000000000000000000000815260040180806020018281038252601b8152602001807f536166654d6174683a206164646974696f6e206f766572666c6f77000000000081525060200191505060405180910390fd5b8091505092915050565b60608585858585604051602001808673ffffffffffffffffffffffffffffffffffffffff1673ffffffffffffffffffffffffffffffffffffffff1681526020018581526020018473ffffffffffffffffffffffffffffffffffffffff1673ffffffffffffffffffffffffffffffffffffffff16815260200183815260200182815260200195505050505050604051602081830303815290604052905095945050505050565b6060818301845110156106d2576040517f08c379a00000000000000000000000000000000000000000000000000000000081526004018080602001828103825260128152602001807f52656164206f7574206f6620626f756e6473000000000000000000000000000081525060200191505060405180910390fd5b60608215600081146106ef57604051915060208201604052610740565b6040519150601f8416801560200281840101858101878315602002848b0101015b8183101561072d5780518352602083019250602081019050610710565b50868552601f19601f8301166040525050505b50809150509392505050565b600060148201835110156107c8576040517f08c379a00000000000000000000000000000000000000000000000000000000081526004018080602001828103825260128152602001807f52656164206f7574206f6620626f756e6473000000000000000000000000000081525060200191505060405180910390fd5b60006c01000000000000000000000000836020860101510490508091505092915050565b600060606107f983610948565b9050600061080682610a2f565b90508092505050919050565b60008111610888576040517f08c379a000000000000000000000000000000000000000000000000000000000815260040180806020018281038252601d8152602001807f4d75737420756e6c6f636b206120706f73697469766520616d6f756e7400000081525060200191505060405180910390fd5b80600154116108e2576040517f08c379a000000000000000000000000000000000000000000000000000000000815260040180806020018281038252603d815260200180610bb7603d913960400191505060405180910390fd5b6108f781600154610a8790919063ffffffff16565b6001819055508173ffffffffffffffffffffffffffffffffffffffff166108fc829081150290604051600060405180830381858888f19350505050158015610943573d6000803e3d6000fd5b505050565b606060008090505b600283518161095b57fe5b04811015610a2657600083828151811061097157fe5b602001015160f81c60f81b9050600060018386510303905084818151811061099557fe5b602001015160f81c60f81b8584815181106109ac57fe5b60200101907effffffffffffffffffffffffffffffffffffffffffffffffffffffffffffff1916908160001a905350818582815181106109e857fe5b60200101907effffffffffffffffffffffffffffffffffffffffffffffffffffffffffffff1916908160001a90535050508080600101915050610950565b50819050919050565b60008060008090505b8351811015610a7d576001810184510360080260020a848281518110610a5a57fe5b602001015160f81c60f81b60f81c60ff1602820191508080600101915050610a38565b5080915050919050565b6000610ac983836040518060400160405280601e81526020017f536166654d6174683a207375627472616374696f6e206f766572666c6f770000815250610ad1565b905092915050565b6000838311158290610b7e576040517f08c379a00000000000000000000000000000000000000000000000000000000081526004018080602001828103825283818151815260200191508051906020019080838360005b83811015610b43578082015181840152602081019050610b28565b50505050905090810190601f168015610b705780820380516001836020036101000a031916815260200191505b509250505060405180910390fd5b506000838503905080915050939250505056fe56616c7565206f66207472616e73616374696f6e206d75737420626520706f73697469766545544820746f6b656e2062616c616e63657320696e73756666696369656e7420746f2066756c66696c6c2074686520756e6c6f636b207265717565737444617461206d75737420636f6e7461696e20383420627974657320666f722061207375636365737366756c206465636f64696e67a264697066735822122033dc64535ac8b549022cbb137275cd9cfdecc3efe42f0926230ebf9fc59960d364736f6c63430006020033",
  "source": "// SPDX-License-Identifier: MIT\npragma solidity >=0.6.2;\n\nimport \"@openzeppelin/contracts/math/SafeMath.sol\";\nimport \"./Decoder.sol\";\n\ncontract EthereumApp {\n    using SafeMath for uint256;\n    using Decoder for bytes;\n\n    uint256 public nonce;\n    uint256 public totalETH;\n\n    enum AppEventTags { SendETH, SendERC20 }\n\n    event AppEvent(uint _tag, bytes _data);\n    event Unlock(bytes _sender, address _recipient, uint256 _amount);\n\n    constructor() public {\n        nonce = 0;\n    }\n\n    function sendETH(\n        bytes32 _recipient\n    )\n        public\n        payable\n    {\n        require(msg.value > 0, \"Value of transaction must be positive\");\n\n        // Increment locked Ethereum counter by this amount\n        totalETH = totalETH.add(msg.value);\n        // Increment global nonce\n        nonce = nonce.add(1);\n\n        bytes memory data = encodeSendData(msg.sender, _recipient, address(0), msg.value, nonce);\n        emit AppEvent(uint(AppEventTags.SendETH), data);\n    }\n\n    function encodeSendData(\n        address _sender,\n        bytes32 _recipient,\n        address _tokenAddr,\n        uint256 _amount,\n        uint256 _nonce\n    )\n        internal\n        pure\n        returns(bytes memory)\n    {\n        return abi.encode(_sender, _recipient, _tokenAddr, _amount, _nonce);\n    }\n\n\n    function submit(bytes memory _data, bytes memory _signature)\n        public\n    {\n        require(_data.length == 84, \"Data must contain 84 bytes for a successful decoding\");\n\n        // Decode sender bytes\n        bytes memory sender = _data.slice(0, 32);\n        // Decode recipient address\n        address payable recipient = _data.sliceAddress(32);\n        // Deocde amount int256\n        bytes memory amountBytes = _data.slice(32 + 20, 32);\n        uint256 amount = amountBytes.decodeUint256();\n\n        sendETH(recipient, amount);\n        emit Unlock(sender, recipient, amount);\n    }\n\n    function sendETH(\n        address payable _recipient,\n        uint256 _amount\n    )\n        internal\n    {\n        require(_amount > 0, \"Must unlock a positive amount\");\n        require(totalETH > _amount, \"ETH token balances insufficient to fulfill the unlock request\");\n\n        totalETH = totalETH.sub(_amount);\n        _recipient.transfer(_amount);\n    }\n}\n",
  "sourcePath": "/Users/denali/go/src/github.com/snowfork/polkadot-ethereum/ethereum/contracts/EthereumApp.sol",
  "compiler": {
    "name": "solc",
    "version": "0.6.2+commit.bacdbe57.Emscripten.clang"
  },
  "schemaVersion": "3.1.0",
  "updatedAt": "2020-08-27T16:23:40.615Z",
  "networkType": "ethereum",
  "devdoc": {
    "methods": {}
  },
  "userdoc": {
    "methods": {}
  }
}