{
  "contractName": "Scale",
  "abi": [
    {
      "inputs": [
        {
          "internalType": "bytes",
          "name": "arr",
          "type": "bytes"
        }
      ],
      "name": "reverseBytes",
      "outputs": [
        {
          "internalType": "bytes",
          "name": "",
          "type": "bytes"
        }
      ],
      "stateMutability": "pure",
      "type": "function"
    },
    {
      "inputs": [
        {
          "internalType": "bytes",
          "name": "data",
          "type": "bytes"
        }
      ],
      "name": "decodeUint256",
      "outputs": [
        {
          "internalType": "uint256",
          "name": "",
          "type": "uint256"
        }
      ],
      "stateMutability": "pure",
      "type": "function"
    },
    {
      "inputs": [
        {
          "internalType": "bytes",
          "name": "data",
          "type": "bytes"
        }
      ],
      "name": "decodeUintCompact",
      "outputs": [
        {
          "internalType": "uint256",
          "name": "",
          "type": "uint256"
        }
      ],
      "stateMutability": "pure",
      "type": "function"
    },
    {
      "inputs": [
        {
          "internalType": "bytes",
          "name": "data",
          "type": "bytes"
        }
      ],
      "name": "decodePackage",
      "outputs": [
        {
          "internalType": "bytes",
          "name": "",
          "type": "bytes"
        },
        {
          "internalType": "address",
          "name": "",
          "type": "address"
        },
        {
          "internalType": "address",
          "name": "",
          "type": "address"
        },
        {
          "internalType": "uint256",
          "name": "",
          "type": "uint256"
        }
      ],
      "stateMutability": "pure",
      "type": "function"
    }
  ],
  "bytecode": "0x608060405234801561001057600080fd5b50610ad8806100206000396000f3fe608060405234801561001057600080fd5b506004361061004c5760003560e01c80632f278ecb146100515780636d78dc9c146101855780639a14d43814610254578063a8b871dd146103f5575b600080fd5b61010a6004803603602081101561006757600080fd5b810190808035906020019064010000000081111561008457600080fd5b82018360208201111561009657600080fd5b803590602001918460018302840111640100000000831117156100b857600080fd5b91908080601f016020809104026020016040519081016040528093929190818152602001838380828437600081840152601f19601f8201169050808301925050505050505091929192905050506104c4565b6040518080602001828103825283818151815260200191508051906020019080838360005b8381101561014a57808201518184015260208101905061012f565b50505050905090810190601f1680156101775780820380516001836020036101000a031916815260200191505b509250505060405180910390f35b61023e6004803603602081101561019b57600080fd5b81019080803590602001906401000000008111156101b857600080fd5b8201836020820111156101ca57600080fd5b803590602001918460018302840111640100000000831117156101ec57600080fd5b91908080601f016020809104026020016040519081016040528093929190818152602001838380828437600081840152601f19601f8201169050808301925050505050505091929192905050506105ab565b6040518082815260200191505060405180910390f35b61030d6004803603602081101561026a57600080fd5b810190808035906020019064010000000081111561028757600080fd5b82018360208201111561029957600080fd5b803590602001918460018302840111640100000000831117156102bb57600080fd5b91908080601f016020809104026020016040519081016040528093929190818152602001838380828437600081840152601f19601f8201169050808301925050505050505091929192905050506105d1565b60405180806020018573ffffffffffffffffffffffffffffffffffffffff1673ffffffffffffffffffffffffffffffffffffffff1681526020018473ffffffffffffffffffffffffffffffffffffffff1673ffffffffffffffffffffffffffffffffffffffff168152602001838152602001828103825286818151815260200191508051906020019080838360005b838110156103b757808201518184015260208101905061039c565b50505050905090810190601f1680156103e45780820380516001836020036101000a031916815260200191505b509550505050505060405180910390f35b6104ae6004803603602081101561040b57600080fd5b810190808035906020019064010000000081111561042857600080fd5b82018360208201111561043a57600080fd5b8035906020019184600183028401116401000000008311171561045c57600080fd5b91908080601f016020809104026020016040519081016040528093929190818152602001838380828437600081840152601f19601f82011690508083019250505050505050919291929050505061063d565b6040518082815260200191505060405180910390f35b606060008090505b60028351816104d757fe5b048110156105a25760008382815181106104ed57fe5b602001015160f81c60f81b9050600060018386510303905084818151811061051157fe5b602001015160f81c60f81b85848151811061052857fe5b60200101907effffffffffffffffffffffffffffffffffffffffffffffffffffffffffffff1916908160001a9053508185828151811061056457fe5b60200101907effffffffffffffffffffffffffffffffffffffffffffffffffffffffffffff1916908160001a905350505080806001019150506104cc565b50819050919050565b600060606105b8836104c4565b905060006105c582610859565b90508092505050919050565b6060600080600060606105e786600060206108b1565b905060006105f68760206109a6565b905060006106058860346109a6565b9050606061061689604860206108b1565b90506000610623826105ab565b905084848483985098509850985050505050509193509193565b60008061064b836000610a46565b9050600060038216905060008160ff1614156106755760028260ff16901c60ff1692505050610854565b60018160ff1614156106ce57600061068e856001610a46565b905060008160ff16905060068167ffffffffffffffff16901b905060028460ff16901c60ff16810190508067ffffffffffffffff16945050505050610854565b60028160ff1614156107695760006106e7856001610a46565b905060006106f6866002610a46565b90506000610705876003610a46565b9050600060088460ff1663ffffffff16901b8660ff16179050600060108460ff1663ffffffff16901b82179050600060188460ff1663ffffffff16901b8217905060028163ffffffff16901c90508063ffffffff1698505050505050505050610854565b60038160ff1614156107e357600060028360ff16901c905060208160ff16116107dd576040517f08c379a0000000000000000000000000000000000000000000000000000000008152600401808060200182810382526035815260200180610a6e6035913960400191505060405180910390fd5b50610851565b6040517f08c379a000000000000000000000000000000000000000000000000000000000815260040180806020018281038252601a8152602001807f436f64652073686f756c6420626520756e726561636861626c6500000000000081525060200191505060405180910390fd5b50505b919050565b60008060008090505b83518110156108a7576001810184510360080260020a84828151811061088457fe5b602001015160f81c60f81b60f81c60ff1602820191508080600101915050610862565b5080915050919050565b60608183018451101561092c576040517f08c379a00000000000000000000000000000000000000000000000000000000081526004018080602001828103825260128152602001807f52656164206f7574206f6620626f756e6473000000000000000000000000000081525060200191505060405180910390fd5b60608215600081146109495760405191506020820160405261099a565b6040519150601f8416801560200281840101858101878315602002848b0101015b81831015610987578051835260208301925060208101905061096a565b50868552601f19601f8301166040525050505b50809150509392505050565b60006014820183511015610a22576040517f08c379a00000000000000000000000000000000000000000000000000000000081526004018080602001828103825260128152602001807f52656164206f7574206f6620626f756e6473000000000000000000000000000081525060200191505060405180910390fd5b60006c01000000000000000000000000836020860101510490508091505092915050565b6000828260ff1681518110610a5757fe5b602001015160f81c60f81b60f81c90509291505056fe4e6f7420737570706f727465643a206e756d6265722063616e6e6f742062652067726561746572207468616e203332206279746573a26469706673582212205510fa95b43d813abcfaeb67b44f6c27f6f2fd730f622249874aaff980bb5e8464736f6c63430006020033",
  "source": "// SPDX-License-Identifier: MIT\npragma solidity >=0.6.2;\n\ncontract Scale {\n\n    // Read a byte at a specific index and return it as type uint8\n    function readByteAtIndex(bytes memory data, uint8 index)\n        internal\n        pure\n        returns (uint8)\n    {\n        return uint8(data[index]);\n    }\n\n      // Convert bytes (big endian) to little endian format\n    function bytesToLittleEndian(bytes memory arr)\n        internal\n        pure\n        returns (uint256)\n    {\n        uint256 number;\n        for(uint i = 0; i < arr.length; i++){\n            number = number + uint(uint8(arr[i])) * (2 ** (8 * (arr.length - (i + 1))));\n        }\n        return number;\n    }\n\n     // Reverse an array of bytes in place\n    function reverseBytes(bytes memory arr)\n        public\n        pure\n        returns(bytes memory)\n    {\n        for (uint i = 0; i < arr.length/2; i++) {\n            bytes1 current = arr[i];\n            uint256 otherIndex = arr.length - i - 1;\n            arr[i] = arr[otherIndex];\n            arr[otherIndex] = current;\n        }\n        return arr;\n    }\n\n    // Decoes a SCALE encoded uint256\n    function decodeUint256(bytes memory data)\n        public\n        pure\n        returns (uint256)\n    {\n        bytes memory reversed = reverseBytes(data);\n        uint256 lEndian = bytesToLittleEndian(reversed);\n        return lEndian;\n    }\n\n    // Decodes a SCALE encoded compact unsigned integer\n    function decodeUintCompact(bytes memory data)\n        public\n        pure\n        returns (uint256)\n    {\n        uint8 b = readByteAtIndex(data, 0);           // read the first byte\n        uint8 mode = b & 3;                           // bitwise operation\n\n        if (mode == 0) {                              // [0, 63]\n            return b >> 2;                            // right shift to remove mode bits\n        } else if (mode == 1) {                       // [64, 16383]\n            uint8 bb = readByteAtIndex(data, 1);      // read the second byte\n            uint64 r = bb;                            // convert to uint64\n            r <<= 6;                                  // multiply by * 2^6\n            r += b >> 2;                              // right shift to remove mode bits\n            return r;\n        } else if (mode == 2) {                       // [16384, 1073741823]\n            uint8 b2 = readByteAtIndex(data, 1);      // read the next 3 bytes\n            uint8 b3 = readByteAtIndex(data, 2);\n            uint8 b4 = readByteAtIndex(data, 3);\n\n            uint32 x1 = uint32(b) | uint32(b2) << 8;  // convert to little endian\n            uint32 x2 = x1 | uint32(b3) << 16;\n            uint32 x3 = x2 | uint32(b4) << 24;\n\n            x3 >>= 2;                                 // remove the last 2 mode bits\n            return uint256(x3);\n        } else if (mode == 3) {                       // [1073741824, 4503599627370496]\n            uint8 l = b >> 2;                         // remove mode bits\n            require(l > 32, \"Not supported: number cannot be greater than 32 bytes\");\n        } else {\n            revert(\"Code should be unreachable\");\n        }\n    }\n\n    function decodePackage(bytes memory data)\n        public\n        pure\n        returns (bytes memory, address, address, uint256)\n    {\n        // Decode sender bytes\n        bytes memory sender = slice(data, 0, 32);\n\n        // Decode recipient address\n        address recipient = sliceAddress(data, 32);\n\n        // Decode token address\n        address tokenAddr = sliceAddress(data, 32 + 20);\n\n        // Deocde amount int256\n        bytes memory amountBytes = slice(data, 32 + 40, 32);\n        uint256 amount = decodeUint256(amountBytes);\n\n        return (sender, recipient, tokenAddr, amount);\n    }\n\n    // Slice a section from a byte array.\n    // Inspired by github.com/GNSPS/solidity-bytes-utils/blob/master/contracts/BytesLib.sol.\n    function slice(bytes memory _bytes, uint256 _start, uint256 _length)\n        internal\n        pure\n        returns (bytes memory)\n    {\n        require(_bytes.length >= (_start + _length), \"Read out of bounds\");\n\n        bytes memory temp;\n\n        assembly {\n            switch iszero(_length)\n            case 0 {\n                // Get a location of some free memory and store it in temp\n                temp := mload(0x40)\n\n                let lengthmod := and(_length, 31)\n\n                // Multiply to prevent the copy loop from ending prematurely\n                let mc := add(add(temp, lengthmod), mul(0x20, iszero(lengthmod)))\n                let end := add(mc, _length)\n\n                for {\n                    // Again, multiply to prevent the copy loop from ending prematurely\n                    let cc := add(add(add(_bytes, lengthmod), mul(0x20, iszero(lengthmod))), _start)\n                } lt(mc, end) {\n                    mc := add(mc, 0x20)\n                    cc := add(cc, 0x20)\n                } {\n                    mstore(mc, mload(cc))\n                }\n\n                mstore(temp, _length)\n                // Allocate the array padded to 32 bytes\n                mstore(0x40, and(add(mc, 31), not(31)))\n            }\n            // If we want a zero-length slice let's just return a zero-length array\n            default {\n                temp := mload(0x40)\n                mstore(0x40, add(temp, 0x20))\n            }\n        }\n        return temp;\n    }\n\n    function sliceAddress(bytes memory _bytes, uint256 _start)\n        internal\n        pure\n        returns (address)\n    {\n        require(_bytes.length >= (_start + 20), \"Read out of bounds\");\n\n        address temp;\n        assembly {\n            temp := div(mload(add(add(_bytes, 0x20), _start)), 0x1000000000000000000000000)\n        }\n        return temp;\n    }\n}\n",
  "sourcePath": "/Users/denali/go/src/github.com/snowfork/polkadot-ethereum/ethereum/contracts/Scale.sol",
  "compiler": {
    "name": "solc",
    "version": "0.6.2+commit.bacdbe57.Emscripten.clang"
  },
  "schemaVersion": "3.1.0",
  "updatedAt": "2020-08-27T14:35:52.296Z",
  "devdoc": {
    "methods": {}
  },
  "userdoc": {
    "methods": {}
  }
}